:020000040000FA
:10000000E802001079010000810100008301000076
:100010008501000087010000890100000000000048
:100020000000000000000000000000008B01000044
:100030008D010000000000008F0100009101000010
:10004000930100008B080000930100002F090000BD
:1000500093010000090F00009301000093010000CC
:100060009301000093010000930100009301000040
:100070009301000093010000930100009301000030
:100080009301000093010000930100009301000020
:100090009301000093010000850A00009301000015
:1000A0009301000093010000930100009301000000
:1000B00093010000930100009301000093010000F0
:1000C00093010000930100009301000000F002F88A
:1000D00000F043F80AA090E8000C82448344AAF19F
:1000E0000107DA4501D100F038F8AFF2090EBAE89D
:1000F0000F0013F0010F18BFFB1A43F0010318475C
:10010000E81C0000081D0000103A24BF78C878C120
:10011000FAD8520724BF30C830C144BF04680C600D
:10012000704700000023002400250026103A28BF55
:1001300078C1FBD8520728BF30C148BF0B60704759
:100140001FB500F0CFF804000020002101F0D6F820
:10015000401C60601FBD10B510BD01F056F811467F
:10016000FFF7EEFF00F0D4FD00F0C0F803B4FFF796
:10017000F2FF03BC01F0BCF809488047094800477A
:10018000FEE7FEE7FEE7FEE7FEE7FEE7FEE7FEE747
:10019000FEE7FEE704480549034A054B70470000A7
:1001A000A9040000CD000000E8000010E8020010E3
:1001B000E800001053EA020C00F069802DE9F04BD2
:1001C0004FF00006002B1FBFB3FA83F503FA05F4C6
:1001D00024FA05F65E4012BF1643B2FA82F502FA1F
:1001E00005F4C5F120051EBF22FA05FC44EA0C0403
:1001F000203556EA044C4FEA144418BF641C4FF0F3
:1002000000084FF00009904271EB030C39D300292C
:1002100019BFB1FA81F701FA07F6B0FA80F700FAD0
:1002200007F6C7F120071EBF20FA07FC46EA0C06B6
:100230002037B6FBF4FCA7EB0507103F07F01F0BB8
:10024000CBF120060CFA0BFB2CFA06F644BFB346A2
:100250000026202FA4BF5E464FF0000B5BEA060C81
:1002600008BF4FF0010B19EB0B09ABFB027C48EB0D
:100270000608C01B06FB02CC0BFB03CC71EB0C0188
:10028000C1E70B46024641464846BDE8F08B13B530
:100290004FF000004FF00001AFF30080BDE81C40BC
:1002A000704770B5064600F00DF804680546304604
:1002B0000A22002100F022FF2C6070BD70477047B9
:1002C00070470000004870478400001000487047E5
:1002D0008400001010B500F005F8001D10BD00BF2F
:1002E0001D10000000487047A40000100446AFF342
:1002F00000802046FFF73AFF70470000FFFFFFFF36
:100300002DE9F047AF480068C0F3016003287CD1B5
:10031000AD48006810F0030006D0012833D0022851
:100320005FD003282ED100E000BFA6480068C0F3CC
:10033000074000F101044FF00201A448D0F8880002
:10034000C0F30E0000F10100A1FB0001A04B4FF033
:10035000000CA0FB037901FB039100FB0C1122466A
:1003600063463846FFF726FF05469A480068C0B244
:1003700000F1010422464FF000032846FFF71AFF60
:10038000954908605DE08F480068C0F3074000F1C0
:1003900001044FF002018D48D0F88800C0F30E0030
:1003A00000F10100A1FB00108C4A4FF0000CA1FBF2
:1003B000027900FB029001FB0C012246634638469D
:1003C000FFF7F8FE054683480068C0B200F101045B
:1003D00022464FF000032846FFF7ECFE7E490860F6
:1003E0002FE078480068C0F3074000F101044FF0A7
:1003F00002017648D0F88800C0F30E0000F1010039
:10040000A1FB00124FF4004000E01BE04FF000039E
:10041000A1FB007902FB009001FB03012246384654
:10042000FFF7C8FE05466B480068C0B200F1010442
:1004300022464FF000032846FFF7BCFE66490860DD
:1004400000BF2FE06048006810F0030006D00128CC
:1004500010D0022819D0032823D100E000BF5D4846
:100460000068C0B200F101005949B1FBF0F05A49EF
:10047000086016E057480068C0B200F10100574913
:10048000B1FBF0F0544908600BE052480068C0B27C
:1004900000F101004FF40041B1FBF0F04E4908605B
:1004A00000BF00BFBDE8F08720204D4908604748E5
:1004B000D0F8A00110F0200F05D000BF4848006818
:1004C00010F0400FFAD00320424908604FF00000BE
:1004D0003E49C1F8A801434908604FF001003A497C
:1004E00008604148414908604FF0AA00404908604F
:1004F0004FF0550008604FF001003E4908604FF092
:10050000AA003B4908604FF055003049C1F88C0003
:1005100000BF2C48006810F0806FFAD003203549E6
:1005200008604FF0AA002949C1F88C004FF055002F
:100530002F49086000BF2348006810F0407FFAD0C0
:1005400023202D4908604FF0AA002049C1F8AC00D3
:100550004FF05500294908604FF001002849086014
:100560004FF0AA00254908604FF055001749C1F81F
:10057000AC0000BF2348006810F4806FFAD003205D
:100580001F4908604FF0AA001049C1F8AC004FF0B5
:1005900055001A49086000BF1A48006810F4407FEF
:1005A000FAD01948194908604FF000000749C1F80E
:1005B000C8010846006820F4704040F4804008609C
:1005C0007047000088C00F400CC10F4000C00F40B2
:1005D00000093D0004C10F4000000010001BB700DF
:1005E000A0C10F40ACC10F406300050084C00F40A4
:1005F0008CC00F4080C00F40A4C00F40ACC00F4063
:10060000A0C00F40A8C00F40DE872804C4C00F4020
:1006100010B5002807DACA06140EF84A00F00F03D6
:100620001B1FD45403E0CA06130EF54A135410BD21
:10063000F448006A40F02070F24908620846C06B36
:1006400040F02070C8637047EE48806B40F40000B3
:10065000EC4988637047EB48C06B40F40000E949FF
:10066000C8637047E748806B40F00070E5498863D5
:100670007047E448C06B40F00070E249C8637047BF
:10068000E148006840F04000E049C1F8C400E0489B
:10069000C068E04940EA0100DD49C8604FF0000051
:1006A000DD49C86046F2A81088614FF0020048603A
:1006B0004FF0010008650846C06C46F66C4140EA00
:1006C0000100D549C8644FF0020048614FF00900AD
:1006D0004860704710B5CC48006840F00200CB4934
:1006E000C1F8C400CA48C06840F44000C849C860A6
:1006F000CA484FF04021C8600846806A40F0300088
:1007000088624FF00100486001460846FFF780FF0D
:10071000012000F0EDFB10BD10B5BB48006840F4AF
:100720008000BA49C1F8C400B948006840F440707C
:10073000B7490860B948BA49C8600846806A40F0BD
:10074000060088624FF0010048604FF002014FF050
:100750000300FFF75DFF032000F0CAFB10BDAA48AD
:10076000006840F00400A949C1F8C4004FF000003F
:10077000AC49C8604FF00200486143F2D400886180
:100780004FF03100C8634FF001004860704710B56A
:100790009D48006840F480509C49C1F8C4009C48C2
:1007A000406840F480409A4948600846406C40F4F4
:1007B000004048649C489D4908600846C06840F471
:1007C0008070C8604FF0160000F092FB03211620E5
:1007D000FFF71EFF10BD2DE9FC5F83464FF0000AB6
:1007E000584601F030F80022914BCDE9000101F0AC
:1007F00055F8804600228F4B00F070FE064600221E
:100800008D4B01F049F9044600F0F0FF8246824822
:10081000C0F81CA045F2E4707F49086208620846EF
:10082000C0F824A0006D40F00E000865BDE8FC9FF4
:100830002DE9FC5F83464FF0000A584601F003F8AB
:1008400000227B4BCDE9000101F028F88046002210
:10085000784B00F043FE06460022774B01F01CF96E
:10086000044600F0C3FF82466B48C0F840A045F242
:10087000E4706949486448640846C0F848A0006DBF
:1008800040F070000865BDE8FC9F2DE9F0474FF08F
:100890004020006840F020004FF040210860674889
:1008A0000068401C6549086065480068401C644950
:1008B00008606448006801F0E5F90646624A634B47
:1008C00000F064FD044600F02FFD5E4908605B48BF
:1008D0000068142829D14FF04020006B5C4909685A
:1008E000401A5C4908605C480068401C5A4908602E
:1008F0005848006800F0BEFF804642460B46002084
:10090000564900F0EBFD06460022554B00F0C6FFAD
:10091000044600F06BFF5349086000204749086017
:100920004FF04020006B4A490860BDE8F0872DE990
:10093000F0473B48006840F01000394908604A48D9
:100940000068401C4849086048480068401C474906
:10095000086045480068142822D13148C06A4449DB
:100960000968401A434908600846006800F082FFA1
:10097000064632460B460020384900F0AFFD0446DB
:100980000022374B00F08AFF804600F02FFF3A49E3
:1009900008600020344908602148C06A3449086072
:1009A000BDE8F08710B5FFF756FEFFF762FE322074
:1009B000FFF711FF3220FFF73BFF10BD10B50446D3
:1009C0002E480068A0420CD82D480068401C2C49D5
:1009D000086001E0FFF7E6FF294800680328F9D026
:1009E0000AE027480068401E25490860084600685C
:1009F000002801DA0020086010BD000018ED00E0BA
:100A000000E400E000C00920C4C00F4000C00F4057
:100A100000C00240000A2200008001408FD0030085
:100A20000000094000800040010120060040034012
:100A3000006AD8400000594000F9D5400C00001071
:100A40001400001024000010DCD781734694F03F9E
:100A5000480000100800001028000010003DD4409D
:100A600000004E401C000010100000101800001084
:100A70004C0000100400001020000010380000108E
:100A8000500000102DE9F05FFC49086B01F026F9D9
:100A9000FB490860F9494968C1F30B1001F01EF9E0
:100AA000F74908600846006801F0ECF880464FF00E
:100AB0006632F44B00F0F2FE06460022F24B00F0E4
:100AC0000DFD044600F030FCF0490860084600685F
:100AD00001F0D8F88046EE4AEE4B00F0E9FF0646FA
:100AE00032460B460020EC4900F0F8FC0446EB4A85
:100AF000EB4B00F0DDFF824600F048FEE94908605C
:100B0000E9480068FFF75AFFBDE8F09F70B5054659
:100B100000BFFFF799FDFFF7A5FD0020E34908603E
:100B2000E349086005EB85008000152190FBF1F496
:100B30004620FFF750FE4620FFF77AFE00BF05E093
:100B40004620FFF748FE4620FFF772FED8480068AF
:100B5000D64909688842F3D005E03220FFF768FEE5
:100B60004620FFF738FED2480068D049096888421D
:100B7000F3D805E03220FFF72EFE4620FFF758FE9F
:100B8000CA480068CA4909688842F3D8C74800685B
:100B9000A04203D8C6480068A042D0D9FFF702FFA0
:100BA00070BD70B5054600BFFFF74EFDFFF75AFD5B
:100BB0000020BE490860BE49086005EB8500800042
:100BC000152190FBF1F41920FFF705FE1920FFF71E
:100BD0002FFE00BF05E01920FFF7FDFD1920FFF7EC
:100BE00027FEB3480068B14909688842F3D005E0A0
:100BF0003220FFF71DFE1920FFF7EDFDAC4800681D
:100C0000AA4909688842F3D805E03220FFF7E3FDDE
:100C10001920FFF70DFEA5480068A549096888421C
:100C2000F3D8A2480068A04203D8A1480068A042B7
:100C3000D0D9FFF7B7FE70BD10B5FFF705FDFFF780
:100C400011FD0020994908609949086005E01920C4
:100C5000FFF7C1FD4B20FFF7EBFD944800680A2821
:100C600003D8934800680A28F1D905E03220FFF73D
:100C7000DFFD1920FFF7AFFD8C4800680A28F5D981
:100C800005E04B20FFF7D4FD3220FFF7A4FD884894
:100C900000680A28F5D987480068FFF737FFFFF793
:100CA00081FE10BD10B5FFF7CFFCFFF7DBFC002085
:100CB0007E4908607E49086005E04B20FFF78BFD08
:100CC0001920FFF7B5FD794800680A2803D878484D
:100CD00000680A28F1D905E03220FFF7A9FD4B2072
:100CE000FFF779FD714800680A28F5D905E0192059
:100CF000FFF79EFD3220FFF76EFD6D4800680A2861
:100D0000F5D96C480068FFF701FFFFF74BFE10BDF7
:100D100002200246684B19684FF6FF031940674BE3
:100D20000B4343EA0221644B196000BFFFF780FCCC
:100D3000FFF7A6FCFFF7CEFCFFF7EEFCFFF70FFD79
:100D4000FFF725FD4FF4165000F0A2F95C485D490D
:100D500008605D4800F00FF900BF5C48007800288B
:100D6000FBD000205949087000BF5948007800287E
:100D70007DD00020564908705649086072E05048FE
:100D800054490968405C41280DD14D4A51490968D0
:100D9000491C5018FFF785FA464908600846006864
:100DA000FFF7B4FE59E046484A490968405C4428C8
:100DB0000BD1434A47490968491C5018FFF771FA9B
:100DC0003C490860FFF738FF47E03D484149096862
:100DD000405C49280BD13A4A3E490968491C5018E1
:100DE000FFF75FFA33490860FFF75CFF35E03448EE
:100DF00038490968405C52280DD1314A35490968A3
:100E0000491C5018FFF74DFA2A4908600846006847
:100E1000FFF7C7FE21E02A482E490968405C4F28A9
:100E200009D1274A2B490968491C5018FFF739FA9C
:100E30001D49086011E0224826490968405C0D28D8
:100E400003D101202449087010E024A000F093F899
:100E500001202149087009E009E01E480068C01C13
:100E60001C4908601B4800681E2888D300BF1A4828
:100E7000007800283FF479AF00BFFEE70040034050
:100E80003000001066660A4000FEAF4034000010DB
:100E90009A9999999999C93F00C03740E17A14AE5F
:100EA00047E1DA3F380000103C0000101400001049
:100EB000180000102C0000100CED00E00000FA05F6
:100EC0006400001054000010981D00006000001025
:100ED000580000104000001044000010436F6D6186
:100EE0006E646F206572726F6E656F0A0D00000090
:100EF00000F01F020121914042094FF0E02303EB73
:100F00008202C2F8001170477348806800F00E003A
:100F100002281BD004282CD16F4800786F4909683B
:100F200008706E48006801786C480068401C6B4A85
:100F300010600D2909D100201146096808700120B0
:100F40006749087067481146086012E06648006803
:100F5000007850B16448006800785F4908706248C2
:100F60000068401C6049086002E001205F49087089
:100F700000BF00BF70475C49086000215B4A1170E8
:100F8000594909680978544A117057490968491C38
:100F9000554A116070472DE9F84F01464FF0FF3078
:100FA000DFF84CB1DBF800B04FEA9B0800260027C1
:100FB00000234FF0010A4FF0000BCDF800B04FF0C6
:100FC00000090025DFF82CC14FEA181801222CE097
:100FD000002424E002FB08FB02EB040EBBFBFEF73F
:100FE000B7FBF1F3B7FBF1FB01FB1B7BBBEB510F35
:100FF00000D95B1C022B11D9B3F5803F0ED2B7FB91
:10100000F3F68E4201D88D1B00E0751A654505D2B6
:10101000924600949946AC4605B902E0641C0F2C38
:10102000D8D900BF05B902E0521C0F2AD0D900BFA1
:1010300001EB410B4FF0640EBBFBFEFBE34525D9F2
:10104000DFF894B09BF80CB04BF0800BDFF888E031
:101050008EF80CB04FEA192B8EF804B08EF8009081
:10106000F3469BF80CB02BF0800B8EF80CB04FF0D1
:10107000F00B0BEA0A1BDDF800E00EF00F0E4BEA56
:101080000E0BDFF854E08EF828B00020BDE8F88F92
:1010900010B504461848006840F050001649086032
:1010A0000D48007B0C4908730846007B40F00300A4
:1010B00008732046FFF76FFF0320074948600520AB
:1010C0000121814042094FF0E02303EB8202C2F884
:1010D000001100BF10BD000000C00040540000100F
:1010E00058000010640000105C0000106000001048
:1010F00000000010A086010000C002402DE9F0476A
:1011000091460F4680460446002614F8015B2DB137
:10111000FFF7E0F80068405DC007F6D12B2D02D044
:101120002D2D18D0641E4A463946204600F01EF880
:1011300027B13968A14201D1C7F800804FF00204FD
:1011400071050BD54042002803DDFFF7BBF80460B2
:10115000A007BDE8F08746F48066E4E70028F8DAE7
:10116000FFF7B0F804606FF00040F2E72DE9F05FA0
:10117000824615468B4600270AF10104B9460078DD
:10118000302801D09DB113E014F8010B0127782815
:1011900003D0582801D045B10AE00DB1102D07D178
:1011A000002714F8010B102502E0082500E00A25AD
:1011B0000026B0460EE005FB080005FB06F10127FE
:1011C0001FFA80F801EB1046B6F5803F00D3B94610
:1011D00014F8010B294600F03DF80028EBDABBF1CA
:1011E000000F05D00FB1641E00E05446CBF800405C
:1011F000B9F1000F06D0FFF765F802210160C81EA3
:10120000BDE8F09F48EA0640FAE77546FFF75EF84A
:10121000AE4605006946534620F00700854618B0E3
:1012200020B5FEF7B7FFBDE820404FF000064FF0B5
:1012300000074FF000084FF0000B21F00701AC460B
:10124000ACE8C009ACE8C009ACE8C009ACE8C0092A
:101250008D4670473A2800D2303820F02002412ACB
:1012600001D3A2F13700884201D34FF0FF3070471D
:101270004FF0013C50F8042B51F8043B9A4221D125
:10128000A2EB0C03934313EACC1317D150F8042BB1
:1012900051F8043B9A4215D1A2EB0C03934313EA95
:1012A000CC130BD150F8042B51F8043B9A4209D1CE
:1012B000A2EB0C03934313EACC13DBD04FF00000F6
:1012C000704700BFD01A01BAB1FA81F101F01801DC
:1012D00022FA01F0CB40C1F12001DBB2C0B2C01A4A
:1012E0002CFA01F3D11A914311EAC311E6D17047E8
:1012F00001491820ABBEFEE72600020010B5002908
:101300000AD00878002807D005487844FFF7B0FFD6
:10131000002801D0002010BD0248784410BD000014
:10132000FE0A0000F60A000021F00042A2F160521D
:10133000B2F5801F01F0004328BFD2F17F6C0BD9BA
:101340005FEA001C43EAC20242EB507018BF7047CC
:1013500028BF20F001007047B2F5801FBCBF1846BF
:1013600070474FEA410C1CF5001F02D2084600F0FE
:101370000EBD70B500F03CFB00000089FFF7F6BF22
:101380004FF00040A0F580007047000010B591EAD2
:10139000030F48BF83F0004300F19283841A71EB7E
:1013A000030C05D2121943EB0C03001B61EB0C017B
:1013B000DFF824E14FEA1154A4EB135C1EEA430F5B
:1013C00018BF9EEA445F73D023EA0E03DCF1200EBF
:1013D00021EA045143F4801332D322FA0CFE10EBBD
:1013E0000E0023FA0CFE41EB0E01CCF1200E03FAA5
:1013F0000EFE10EB0E0051F10001B1F5801FCCF193
:10140000200E32D201EB045112FA0EF2BDE8104068
:1014100058BF7047401C38BF5FEA420218BF704790
:10142000002814BF20F0010041F100014FEA410300
:1014300013F5001F38BF7047A1F1C04100F026BB73
:10144000012A43EB0302ACF1200CDCF11F0E32BF8A
:101450004FF0000E23FA0CF310EB030041EB0451A4
:10146000B4EB115FD0D0A1EB045101F58011490814
:101470005FEA300001EB04510ED350F1000038BF99
:1014800012FA0EFE08D1BDE81040C9E7401C38BF73
:101490005FEA4202CAD1C3E7BDE810404FEA410308
:1014A00013F5001F38BF7047A1F1C04100F0EEBA3C
:1014B0009EEA445F08D011EA5E0FBDE8104004BF09
:1014C00001F0004100207047BDE8104070B500F009
:1014D0008FFA00BF64FBBE3E0000E0FF2DE9C04173
:1014E00030B4DFF8A0C23CEA111418BF3CEA131470
:1014F00000F0EC8081EA03051CEA111444EAD5747B
:1015000018BF1CEA131500F0C780A4EB05044FF0C8
:10151000004545EAC12145EAC32341EA505143EA67
:10152000525304F17F74994204F500344FEAC0200D
:101530004FEAC22208BF904200F09C804FEA136538
:101540000FF24016765D4FEA134506FB05F7C7F12B
:10155000807706FB07F74FEAD737A7FB0368764289
:10156000C8F58038A7FB06CE38BFA8F1010807FBF5
:1015700008E64FF0000EA6FB028CE6FB03CEDCF182
:10158000000CCEF1004E38BFAEF1010EA6FB0C5898
:101590004FF000074FF00005E6FB0E87A1FB08C6E1
:1015A000A0FB07CE16EB0E0645F10005E1FB076533
:1015B00015F1E04E7EBFA4F580345FEA46066D412A
:1015C00016F1800745F100054FEA17274FEA066636
:1015D00047EA0567A6F1DE46B6F1805F4FEA1525BA
:1015E0001FD9384624F0010C05EBC471BCF1FE6F25
:1015F00001EB0C1102D8F0BCBDE8008124425CBFB5
:1016000001F5801E9EEAC47F02D4F0BCBDE80081D3
:10161000244238D4F0BCA1F1C041BDE8004100F043
:1016200035BA4FEAD22242EA43524FEAD323A7FB0C
:1016300002864FEAD02040EA415007FB03661EEACB
:101640000E0F4FEAD12105FB026658BFA6EB0056EC
:10165000B6EB00564FEA520E4EEAC37E18EB0E0E62
:1016600056EB530EBDD518EB02085E417F1C55F1B9
:101670000005B6E74FF480154FF000074FF0000665
:101680004FF00008ADE7F0BC4FF0000001F1C041A1
:1016900001F00041BDE8008111EA0C1F0CEA1315AE
:1016A00000D00CE013EA0C1F00F025804FF0000082
:1016B000F0BC81EA030101F00041BDE80081F0BC0B
:1016C000BDE8004181EA030100F0E0B9F0BCBDE8EB
:1016D000004170B500F08CF9097EFC3E00F007B8BF
:1016E00081EA03014FF0000001F00041704781EAF8
:1016F000030100F0CBB9F0BCBDE800414FF00000A1
:1017000021497047FFFDFBF9F7F5F4F2F0EEEDEB40
:10171000E9E8E6E4E3E1E0DEDDDBDAD8D7D5D4D3EF
:10172000D1D0CFCDCCCBCAC8C7C6C5C4C2C1C0BF3B
:10173000BEBDBCBBBAB9B8B7B6B5B4B3B2B1B0AF41
:10174000AEADACABAAA9A8A8A7A6A5A4A3A3A2A125
:10175000A09F9F9E9D9C9C9B9A99999897979695E0
:1017600095949393929191908F8F8E8E8D8C8C8B7C
:101770008B8A898988888787868585848483838204
:10178000828181800000FF070000F87F4FEA41035B
:101790004FEA5353A3F58063D3F11E03C8BFD3F1BF
:1017A000210C0CDD4FF0004242EAC12242EA5052C5
:1017B00032FA03FC8CEAE17CACEBE1707047102B51
:1017C000C4BF0020704703F5787CBCF1FF3F04D014
:1017D0006FF0004282EA2100704770B500F008F90E
:1017E0004992248000207047F2E700004FEA11532D
:1017F000A3F58063D3F11E03A8BFD3F1200C08DB4F
:101800004FF0004242EAC12252EA505232FA03F04B
:10181000704709420BD4102BC4BF0020704703F55A
:10182000787CBCF1FF3F05D04FF0FF3070474FF0A0
:101830000000704770B500F0DBF800BF49922480CB
:1018400000207047F0E710F0004248BF4042B0FA75
:1018500080F310FA03F10AD0C3F11D0303F580638E
:101860004FEA415002EB035202EBD12170474FF097
:1018700000007047B0FA80F310FA03F10AD0C3F108
:101880001D0303F580634FEA41504FEA035202EB18
:10189000D12170474FF0000070470000DFF848C1C9
:1018A00070B51CEA111E1EBF1CEA13159EEA0C0F30
:1018B00095EA0C0F00F06F8081EA030423EA4C13D1
:1018C0004EEAD47E21EA4C1141F4801143F4801396
:1018D000AE44A1FB024CA0FB0365AEF17F7E36193E
:1018E00055EB0C05A1FB034C4CF10003A0FB021CC3
:1018F00016EB0C06654153F10003094218BF46F090
:10190000010613F4007F0BD14FEA03314FEA053093
:10191000340341EA155140EA16506FF003020AE021
:101920004FEAC3214FEAC520F40241EA555140EA8B
:1019300056506FF0020202EB2E4201EB025585EA8F
:10194000CE710AD05FEA440C18BF24F0004450F175
:10195000000041F1000120EAD47040F2FE7C6245B3
:1019600000D270BDA84214BF4FF080444FF04044F5
:10197000002E08BF0024BEF1806FA8BFA1F1C041B6
:10198000BDE8704080F282804FF0000001F1C0415C
:1019900001F0004170479EEA0C0F0CEA131518BFC6
:1019A00095EA0C0F06D04FF0000081EA030E0EF00E
:1019B000004170BD00F01CF88900013E00F007B83E
:1019C00000F009B84FEA430C5FEA5C5C08D081EA9A
:1019D000030100F05BB84FEA410C5FEA5C5CF6D1B2
:1019E0004FF00000014970470000FF070000F87F3A
:1019F0000EF1020E2EF0030E5EF8046B364205D493
:101A0000012A43EB030515F5001F12D8012841EB0D
:101A1000010C1CF5001F0CD80ED14FEAD17C15F536
:101A2000001F0CEB4C0C0CF1020C08BF4CEBD37CF0
:101A300004E04FF0080C01E04FEAD37C0CEB4C05BE
:101A400026FA05F606F00706B6F1040C06D20EEBF0
:101A5000860CBDE870404CF0010C6047DFE80CF0EC
:101A6000090B02024FF000414FF00000A1F50021E8
:101A700070BD19461046012851EB010418BFD4F57A
:101A8000001484BF002001F0004170BD0808A0F5DB
:101A900000114FEA3101704791EA030F10B581F050
:101AA00000413FF57BAC83F0004300F009B8000033
:101AB00010B591EA030F48BF83F000433FF56EACC9
:101AC000841A71EB030C07D212198CF0004C43EB13
:101AD0000C03001B61EB0C01DFF8A4E14FEA115489
:101AE000A4EB135C1EEA430F18BF9EEA445F00F0AC
:101AF000B08023EA6E03524221EA0451C3EB6E0325
:101B000038BF5B1EDCF1200E25D322FA0CFE10EB51
:101B10000E0043FA0CFE41EB0E01CCF1200E03FA4D
:101B20000EFE10EB0E0051F10001CCF1200E29D475
:101B300012FA0EF201EB0451BDE8104058BF704795
:101B4000401C1CBFB2F1004F704700280CBF491C5D
:101B500020F00100704712EB020E43EB030218BFA6
:101B60004FF0010E4EEA4202ACF1200CDCF11E0EE9
:101B700054D943FA0CFE10EB0E0051F1FF31CCF1B9
:101B80001E0ED5D50EF1010E12FA0EFE404141EBAC
:101B9000010101EB445C5FEA5C5C10D910EBDE7084
:101BA00001EB045138BFBEF1004FBDE8104018BF33
:101BB000704700280CBF491C20F00100704730D24C
:101BC0004FEAD42C11F5001124F400641BD0B1FAB3
:101BD00081F20B3AA41AA41ED2F12003914030FAEC
:101BE00003F31943904001EBCC71002C01EB04513D
:101BF000BDE81040A8BF704701F1C0414FF00000A0
:101C000001F000417047B0FA80F310FA03F100D1FF
:101C100010BDE41A173C4805C90AE4E701EB04517A
:101C200010BD491001EB0451BDE810404FEA3000EF
:101C300002E04FF0000170474A0008BF0042F8D0B0
:101C4000B2F5001F28BF704701F000414FF00000BF
:101C500070479EEA445F07D011EA5E0FBDE810406E
:101C600004BF002100207047BDE8104070B5FFF7A9
:101C7000BFFE00BF40DFF63E83F0004110467047D4
:101C80000000E0FF43004FEAD30C4FEA3C0C434016
:101C90001FBF40070CF1605113F0FE4F70471CF05E
:101CA000006F03D100200CF0004170470CF000439E
:101CB00043EA507010B540EACC0000F022F800BFB3
:101CC000000000924FEA0001FFF7E0BE4FF0004134
:101CD0004FF00000A1F5002170470000B0FA80F33A
:101CE00010FA03F2C3F19D030AD0D90501EB1220CB
:101CF000530638BF704700F1010008BF20F0010013
:101D000070470EF1020E2EF0030E5EF8044B2442D3
:101D100004D44FEA4102B2F17F4F11D84FEA400399
:101D2000B3F17F4F0CD80ED14FEAD07CB2F17F4F88
:101D30000CEB4C0C0CF1020C08BF4CEBD17C04E01A
:101D40004FF0080C01E04FEAD17C0CEB4C0324FA75
:101D500003F404F00704B4F1040C06D20EEB840C77
:101D6000BDE810404CF0010C6047DFE80CF00708BC
:101D700002024FF00040A0F5800010BD084642006E
:101D800018BFD2F1807288BF00F0004010BDFF2163
:101D900041EAD050C0057047496E74726F64757A1D
:101DA0006361206C612073656E74656E6369612088
:101DB0006465206D6F76696D69656E746F732C2034
:101DC000707565646520696E74726F64756369729D
:101DD000206861737461203130206D6F76696D69A0
:101DE000656E746F733A0A00181F0000000000103F
:101DF00064000000080100007C1F00006400001067
:101E000084020000240100001001000043000000D3
:101E1000F8FFFFFF0040404040404040404041410B
:101E200041414140404040404040404040404040AF
:101E30004040404040050202020202020202020249
:101E40000202020202202020202020202020200246
:101E500002020202020290909090909010101010D6
:101E60001010101010101010101010101010101072
:101E70000202020202028888888888880808080806
:101E800008080808080808080808080808080808D2
:101E900002020202400000000000000000000000FA
:101EA0000000000000000000000000000000000032
:101EB0000000000000000000000000000000000022
:101EC0000000000000000000000000000000000012
:101ED0000000000000000000000000000000000002
:101EE00000000000000000000000000000000000F2
:101EF00000000000000000000000000000000000E2
:101F000000000000000000000000000000000000D1
:101F1000000000000000000000E1F50500000000E6
:101F200000000000000000000000000000000000B1
:101F300000000000000000000000000000000000A1
:101F40000000000000000000000000000000000091
:101F50000000000000000000000000000000000081
:101F60000000000000000000000000000000000071
:0C1F700000000000000000000000000065
:04000005000001797D
:00000001FF
