:020000040000FA
:10000000A8020010690100007101000073010000E6
:100010007501000077010000790100000000000078
:100020000000000000000000000000007B01000054
:100030007D010000000000007F0100008101000040
:10004000830100008B080000830100002F090000DD
:100050008301000083010000830100008301000090
:100060008301000083010000830100008301000080
:100070008301000083010000830100008301000070
:100080008301000083010000830100008301000060
:100090008301000083010000A50900008301000026
:1000A0008301000083010000830100008301000040
:1000B0008301000083010000830100008301000030
:1000C00083010000830100008301000000F002F8BA
:1000D00000F03AF80AA090E8000C82448344AAF1A8
:1000E0000107DA4501D100F02FF8AFF2090EBAE8A6
:1000F0000F0013F0010F18BFFB1A43F0010318475C
:100100006C1600008C160000103A24BF78C878C125
:10011000FAD8520724BF30C830C144BF04680C600D
:10012000704700000023002400250026103A28BF55
:1001300078C1FBD8520728BF30C148BF0B60704759
:100140001FB51FBD10B510BD00F0A6F81146FFF792
:10015000F7FF00F0C0FD00F0C4F803B4FFF7F2FFB2
:1001600003BC00F0F5FD000009488047094800473E
:10017000FEE7FEE7FEE7FEE7FEE7FEE7FEE7FEE757
:10018000FEE7FEE704480549034A054B70470000B7
:10019000A9040000CD000000A8000010A802001073
:1001A000A800001053EA020C00F069802DE9F04B22
:1001B0004FF00006002B1FBFB3FA83F503FA05F4D6
:1001C00024FA05F65E4012BF1643B2FA82F502FA2F
:1001D00005F4C5F120051EBF22FA05FC44EA0C0413
:1001E000203556EA044C4FEA144418BF641C4FF003
:1001F00000084FF00009904271EB030C39D300293D
:1002000019BFB1FA81F701FA07F6B0FA80F700FAE0
:1002100007F6C7F120071EBF20FA07FC46EA0C06C6
:100220002037B6FBF4FCA7EB0507103F07F01F0BC8
:10023000CBF120060CFA0BFB2CFA06F644BFB346B2
:100240000026202FA4BF5E464FF0000B5BEA060C91
:1002500008BF4FF0010B19EB0B09ABFB027C48EB1D
:100260000608C01B06FB02CC0BFB03CC71EB0C0198
:10027000C1E70B46024641464846BDE8F08B13B540
:100280004FF000004FF00001AFF30080BDE81C40CC
:100290007047704770477047754600F029F8AE46C2
:1002A00005006946534620F00700854618B020B582
:1002B000FFF768FFBDE820404FF000064FF0000751
:1002C0004FF000084FF0000B21F00701AC46ACE8FE
:1002D000C009ACE8C009ACE8C009ACE8C0098D466B
:1002E00070470446AFF300802046FFF736FF00005A
:1002F000004870474400001070470000FFFFFFFFF8
:100300002DE9F047AF480068C0F3016003287CD1B5
:10031000AD48006810F0030006D0012833D0022851
:100320005FD003282ED100E000BFA6480068C0F3CC
:10033000074000F101044FF00201A448D0F8880002
:10034000C0F30E0000F10100A1FB0001A04B4FF033
:10035000000CA0FB037901FB039100FB0C1122466A
:1003600063463846FFF71EFF05469A480068C0B24C
:1003700000F1010422464FF000032846FFF712FF68
:10038000954908605DE08F480068C0F3074000F1C0
:1003900001044FF002018D48D0F88800C0F30E0030
:1003A00000F10100A1FB00108C4A4FF0000CA1FBF2
:1003B000027900FB029001FB0C012246634638469D
:1003C000FFF7F0FE054683480068C0B200F1010463
:1003D00022464FF000032846FFF7E4FE7E490860FE
:1003E0002FE078480068C0F3074000F101044FF0A7
:1003F00002017648D0F88800C0F30E0000F1010039
:10040000A1FB00124FF4004000E01BE04FF000039E
:10041000A1FB007902FB009001FB03012246384654
:10042000FFF7C0FE05466B480068C0B200F101044A
:1004300022464FF000032846FFF7B4FE66490860E5
:1004400000BF2FE06048006810F0030006D00128CC
:1004500010D0022819D0032823D100E000BF5D4846
:100460000068C0B200F101005949B1FBF0F05A49EF
:10047000086016E057480068C0B200F10100574913
:10048000B1FBF0F0544908600BE052480068C0B27C
:1004900000F101004FF40041B1FBF0F04E4908605B
:1004A00000BF00BFBDE8F08720204D4908604748E5
:1004B000D0F8A00110F0200F05D000BF4848006818
:1004C00010F0400FFAD00320424908604FF00000BE
:1004D0003E49C1F8A801434908604FF001003A497C
:1004E00008604148414908604FF0AA00404908604F
:1004F0004FF0550008604FF001003E4908604FF092
:10050000AA003B4908604FF055003049C1F88C0003
:1005100000BF2C48006810F0806FFAD003203549E6
:1005200008604FF0AA002949C1F88C004FF055002F
:100530002F49086000BF2348006810F0407FFAD0C0
:1005400023202D4908604FF0AA002049C1F8AC00D3
:100550004FF05500294908604FF001002849086014
:100560004FF0AA00254908604FF055001749C1F81F
:10057000AC0000BF2348006810F4806FFAD003205D
:100580001F4908604FF0AA001049C1F8AC004FF0B5
:1005900055001A49086000BF1A48006810F4407FEF
:1005A000FAD01948194908604FF000000749C1F80E
:1005B000C8010846006820F4704040F4804008609C
:1005C0007047000088C00F400CC10F4000C00F40B2
:1005D00000093D0004C10F4000000010001BB700DF
:1005E000A0C10F40ACC10F406300050084C00F40A4
:1005F0008CC00F4080C00F40A4C00F40ACC00F4063
:10060000A0C00F40A8C00F40DE872804C4C00F4020
:1006100010B5002807DACA06140EFE4A00F00F03D0
:100620001B1FD45403E0CA06130EFB4A135410BD1B
:10063000FA48006A40F02070F84908620846C06B2A
:1006400040F02070C8637047F448806B40F40000AD
:10065000F24988637047F148C06B40F40000EF49ED
:10066000C8637047ED48806B40F00070EB498863C9
:100670007047EA48C06B40F00070E849C8637047B3
:10068000E748006840F04000E649C1F8C400E64889
:10069000C068E64940EA0100E349C8604FF0000045
:1006A000E349C86046F2A81088614FF00200486034
:1006B0004FF0010008650846C06C46F66C4140EA00
:1006C0000100DB49C8644FF0020048614FF00900A7
:1006D0004860704710B5D248006840F00200D14928
:1006E000C1F8C400D048C06840F44000CE49C8609A
:1006F000D0484FF04021C8600846806A40F0300082
:1007000088624FF00100486001460846FFF780FF0D
:10071000012000F006FB10BD10B5C148006840F490
:100720008000C049C1F8C400BF48006840F4407070
:10073000BD490860BF48C049C8600846806A40F0AB
:10074000060088624FF0010048604FF002014FF050
:100750000300FFF75DFF032000F0E3FA10BDB0488F
:10076000006840F00400AF49C1F8C4004FF0000039
:10077000B249C8604FF00200486143F2D40088617A
:100780004FF03100C8634FF001004860704710B56A
:10079000A348006840F48050A249C1F8C400A248B0
:1007A000406840F48040A04948600846406C40F4EE
:1007B00000404864A248A34908600846C06840F465
:1007C0008070C8604FF0160000F0ABFA03211620CD
:1007D000FFF71EFF10BD2DE9FC5F83464FF0000AB6
:1007E000584600F01AFD0022974BCDE9000100F0B9
:1007F0003FFD80460022954B00F08AFB0646002212
:10080000934B00F033FE044600F0DAFC8246884841
:10081000C0F81CA045F2E4708549086208620846E9
:10082000C0F824A0006D40F00E000865BDE8FC9FF4
:100830002DE9FC5F83464FF0000A584600F0EDFCBE
:100840000022814BCDE9000100F012FD804600221C
:100850007E4B00F05DFB064600227D4B00F006FE5D
:10086000044600F0ADFC82467148C0F840A045F255
:10087000E4706F49486448640846C0F848A0006DB9
:1008800040F070000865BDE8FC9F2DE9F0474FF08F
:100890004020006840F020004FF0402108606D4883
:1008A0000068401C6B4908606B480068401C6A493E
:1008B00008606A48006800F0CFFE0646684A694B47
:1008C00000F07EFA044600F049FA64490860614885
:1008D0000068142829D14FF04020006B6249096854
:1008E000401A6249086062480068401C604908601C
:1008F0005E48006800F0A8FC804642460B46002097
:100900005C4900F005FB064600225B4B00F0B0FCA2
:10091000044600F055FC5949086000204D49086024
:100920004FF04020006B50490860BDE8F0872DE98A
:10093000F0474148006840F010003F4908605048C7
:100940000068401C4E4908604E480068401C4D49F4
:1009500008604B480068142822D13748C06A4A49C9
:100960000968401A494908600846006800F06CFCB4
:10097000064632460B4600203E4900F0C9FA0446BE
:1009800000223D4B00F074FC804600F019FC404909
:10099000086000203A4908602748C06A3A49086060
:1009A000BDE8F0872DE9F05F2649086B00F080FE76
:1009B0003849086023494968C1F30B1000F078FEFC
:1009C000344908600846006800F046FE80464FF053
:1009D0006632314B00F04CFC064600222F4B00F0F3
:1009E00097FA044600F0BAF92D49086008460068F5
:1009F00000F032FE80462B4A2B4B00F043FD0646AA
:100A000032460B460020294900F082FA0446284A63
:100A1000284B51E018ED00E000E400E000C00920A0
:100A2000C4C00F4000C00F4000C00240000A2200B6
:100A3000008001408FD0030000000940008000408A
:100A40000101200600400340006AD84000005940E0
:100A500000F9D5400C000010140000102400001014
:100A6000DCD781734694F03F3C0000100800001072
:100A700028000010003DD44000004E401C00001033
:100A800010000010180000104000001004000010BA
:100A9000200000103000001066660A4000FEAF40E3
:100AA000340000109A9999999999C93F00C037402C
:100AB000E17A14AE47E1DA3F00F0E4FC824600F050
:100AC0004DF99E490860BDE8F09F10B5FFF7C3FDE2
:100AD000FFF7CFFD3220FFF77EFE3220FFF7A8FEA2
:100AE00010BD70B5054600BFFFF7AEFDFFF7BAFDBC
:100AF0000020934908609349086005EB8500800059
:100B0000152190FBF1F44B20FFF765FE4B20FFF71A
:100B10008FFE00BF05E04B20FFF75DFE4B20FFF787
:100B200087FE88480068864909688842F3D005E056
:100B30003220FFF77DFE4B20FFF74DFE8148006815
:100B40007F4909688842F3D805E03220FFF743FE69
:100B50004B20FFF76DFE7A4800687A4909688842A1
:100B6000F3D877480068A04203D876480068A042CE
:100B7000D0D9FFF7AAFF70BD70B5054600BFFFF7DB
:100B800063FDFFF76FFD00206D4908606D49086047
:100B900005EB85008000152190FBF1F41920FFF78B
:100BA0001AFE1920FFF744FE00BF05E01920FFF7E9
:100BB00012FE1920FFF73CFE624800686049096890
:100BC0008842F3D005E03220FFF732FE1920FFF70C
:100BD00002FE5C4800685A4909688842F3D805E07B
:100BE0003220FFF7F8FD1920FFF722FE5448006875
:100BF000544909688842F3D851480068A04203D894
:100C000050480068A042D0D9FFF75FFF70BD10B513
:100C1000FFF71AFDFFF726FD002049490860494902
:100C2000086005E01920FFF7D6FD4B20FFF700FE16
:100C3000434800680A2803D8424800680A28F1D9C6
:100C400005E03220FFF7F4FD1920FFF7C4FD3C4812
:100C500000680A28F5D905E04B20FFF7E9FD3220AE
:100C6000FFF7B9FD374800680A28F5D9FFF72DFFCF
:100C700010BD10B5FFF7E8FCFFF7F4FC0020304989
:100C800008603049086005E04B20FFF7A4FD1920FB
:100C9000FFF7CEFD2A4800680A2803D829480068D3
:100CA0000A28F1D905E03220FFF7C2FD4B20FFF7FB
:100CB00092FD234800680A28F5D905E01920FFF7BE
:100CC000B7FD3220FFF787FD1E4800680A28F5D9D6
:100CD000FFF7FBFE10BD022002461B4B19684FF6C2
:100CE000FF031940194B0B4343EA0221164B1960CD
:100CF00000BFFFF79DFCFFF7C3FCFFF7EBFCFFF71E
:100D00000BFDFFF72CFDFFF742FD1E20FFF7E9FE6C
:100D1000FFF77DFF0F20FFF72FFFFFF7AAFF00BFB0
:100D2000FEE700F01F020121914042094FF0E0234D
:100D300003EB8202C2F80011704700003800001077
:100D400014000010180000100CED00E00000FA057F
:100D500001491820ABBEFEE72600020021F0004248
:100D6000A2F16052B2F5801F01F0004328BFD2F11A
:100D70007F6C0BD95FEA001C43EAC20242EB507061
:100D800018BF704728BF20F001007047B2F5801FE0
:100D9000BCBF184670474FEA410C1CF5001F02D239
:100DA000084600F0DEBC70B500F00CFB00000089C6
:100DB000FFF7F6BF4FF00040A0F58000704700003D
:100DC00010B591EA030F48BF83F0004300F162833E
:100DD000841A71EB030C05D2121943EB0C03001BB0
:100DE00061EB0C01DFF824E14FEA1154A4EB135C32
:100DF0001EEA430F18BF9EEA445F73D023EA0E0336
:100E0000DCF1200E21EA045143F4801332D322FA9C
:100E10000CFE10EB0E0023FA0CFE41EB0E01CCF1A0
:100E2000200E03FA0EFE10EB0E0051F10001B1F599
:100E3000801FCCF1200E32D201EB045112FA0EF2D7
:100E4000BDE8104058BF7047401C38BF5FEA4202FF
:100E500018BF7047002814BF20F0010041F10001C5
:100E60004FEA410313F5001F38BF7047A1F1C0419D
:100E700000F0F6BA012A43EB0302ACF1200CDCF1DE
:100E80001F0E32BF4FF0000E23FA0CF310EB0300DD
:100E900041EB0451B4EB115FD0D0A1EB045101F54B
:100EA000801149085FEA300001EB04510ED350F184
:100EB000000038BF12FA0EFE08D1BDE81040C9E7A5
:100EC000401C38BF5FEA4202CAD1C3E7BDE8104008
:100ED0004FEA410313F5001F38BF7047A1F1C0412D
:100EE00000F0BEBA9EEA445F08D011EA5E0FBDE88A
:100EF000104004BF01F0004100207047BDE81040E1
:100F000070B500F05FFA00BF64FBBE3E0000E0FF7A
:100F10002DE9C04130B4DFF8A0C23CEA111418BF7B
:100F20003CEA131400F0EC8081EA03051CEA11147A
:100F300044EAD57418BF1CEA131500F0C780A4EB6F
:100F400005044FF0004545EAC12145EAC32341EAC3
:100F5000505143EA525304F17F74994204F500342E
:100F60004FEAC0204FEAC22208BF904200F09C80A6
:100F70004FEA13650FF24016765D4FEA134506FB04
:100F800005F7C7F1807706FB07F74FEAD737A7FBCE
:100F900003687642C8F58038A7FB06CE38BFA8F1B3
:100FA000010807FB08E64FF0000EA6FB028CE6FBEB
:100FB00003CEDCF1000CCEF1004E38BFAEF1010ED5
:100FC000A6FB0C584FF000074FF00005E6FB0E871C
:100FD000A1FB08C6A0FB07CE16EB0E0645F10005E7
:100FE000E1FB076515F1E04E7EBFA4F580345FEAB2
:100FF00046066D4116F1800745F100054FEA1727B7
:101000004FEA066647EA0567A6F1DE46B6F1805F5D
:101010004FEA15251FD9384624F0010C05EBC471A1
:10102000BCF1FE6F01EB0C1102D8F0BCBDE80081F1
:1010300024425CBF01F5801E9EEAC47F02D4F0BC4E
:10104000BDE80081244238D4F0BCA1F1C041BDE824
:10105000004100F005BA4FEAD22242EA43524FEA79
:10106000D323A7FB02864FEAD02040EA415007FB7A
:1010700003661EEA0E0F4FEAD12105FB026658BF38
:10108000A6EB0056B6EB00564FEA520E4EEAC37E70
:1010900018EB0E0E56EB530EBDD518EB02085E4151
:1010A0007F1C55F10005B6E74FF480154FF000079F
:1010B0004FF000064FF00008ADE7F0BC4FF0000025
:1010C00001F1C04101F00041BDE8008111EA0C1FAF
:1010D0000CEA131500D00CE013EA0C1F00F0258079
:1010E0004FF00000F0BC81EA030101F00041BDE8CF
:1010F0000081F0BCBDE8004181EA030100F0B0B915
:10110000F0BCBDE8004170B500F05CF9097EFC3E22
:1011100000F007B881EA03014FF0000001F0004140
:10112000704781EA030100F09BB9F0BCBDE80041C3
:101130004FF0000021497047FFFDFBF9F7F5F4F28D
:10114000F0EEEDEBE9E8E6E4E3E1E0DEDDDBDAD862
:10115000D7D5D4D3D1D0CFCDCCCBCAC8C7C6C5C4C0
:10116000C2C1C0BFBEBDBCBBBAB9B8B7B6B5B4B3D7
:10117000B2B1B0AFAEADACABAAA9A8A8A7A6A5A4C2
:10118000A3A3A2A1A09F9F9E9D9C9C9B9A99999886
:101190009797969595949393929191908F8F8E8E29
:1011A0008D8C8C8B8B8A89898888878786858584B6
:1011B00084838382828181800000FF070000F87FA2
:1011C0004FEA1153A3F58063D3F11E03A8BFD3F1F7
:1011D000200C08DB4FF0004242EAC12252EA505292
:1011E00032FA03F0704709420BD4102BC4BF002021
:1011F000704703F5787CBCF1FF3F05D04FF0FF301E
:1012000070474FF00000704770B500F0DBF800BF8A
:101210004992248000207047F0E710F0004248BF58
:101220004042B0FA80F310FA03F10AD0C3F11D0373
:1012300003F580634FEA415002EB035202EBD121E8
:1012400070474FF000007047B0FA80F310FA03F1D6
:101250000AD0C3F11D0303F580634FEA41504FEA02
:10126000035202EBD12170474FF00000704700009D
:10127000DFF848C170B51CEA111E1EBF1CEA131529
:101280009EEA0C0F95EA0C0F00F06F8081EA0304D0
:1012900023EA4C134EEAD47E21EA4C1141F480112A
:1012A00043F48013AE44A1FB024CA0FB0365AEF1F6
:1012B0007F7E361955EB0C05A1FB034C4CF1000366
:1012C000A0FB021C16EB0C06654153F1000309421A
:1012D00018BF46F0010613F4007F0BD14FEA03312B
:1012E0004FEA0530340341EA155140EA16506FF0D9
:1012F00003020AE04FEAC3214FEAC520F40241EAA3
:10130000555140EA56506FF0020202EB2E4201EBBB
:10131000025585EACE710AD05FEA440C18BF24F06A
:10132000004450F1000041F1000120EAD47040F285
:10133000FE7C624500D270BDA84214BF4FF08044CD
:101340004FF04044002E08BF0024BEF1806FA8BFBC
:10135000A1F1C041BDE8704080F282804FF00000F2
:1013600001F1C04101F0004170479EEA0C0F0CEA08
:10137000131518BF95EA0C0F06D04FF0000081EA54
:10138000030E0EF0004170BD00F01CF88900013E14
:1013900000F007B800F009B84FEA430C5FEA5C5C64
:1013A00008D081EA030100F05BB84FEA410C5FEA24
:1013B0005C5CF6D14FF00000014970470000FF0768
:1013C0000000F87F0EF1020E2EF0030E5EF8046BA3
:1013D000364205D4012A43EB030515F5001F12D848
:1013E000012841EB010C1CF5001F0CD80ED14FEA6F
:1013F000D17C15F5001F0CEB4C0C0CF1020C08BF56
:101400004CEBD37C04E04FF0080C01E04FEAD37CB6
:101410000CEB4C0526FA05F606F00706B6F1040CAF
:1014200006D20EEB860CBDE870404CF0010C604714
:10143000DFE80CF0090B02024FF000414FF0000012
:10144000A1F5002170BD19461046012851EB010499
:1014500018BFD4F5001484BF002001F0004170BD16
:101460000808A0F500114FEA3101704791EA030F17
:1014700010B581F000413FF5ABAC83F0004300F0C4
:1014800009B8000010B591EA030F48BF83F000438C
:101490003FF59EAC841A71EB030C07D212198CF045
:1014A000004C43EB0C03001B61EB0C01DFF8A4E1E3
:1014B0004FEA1154A4EB135C1EEA430F18BF9EEAD7
:1014C000445F00F0B08023EA6E03524221EA0451E7
:1014D000C3EB6E0338BF5B1EDCF1200E25D322FA6E
:1014E0000CFE10EB0E0043FA0CFE41EB0E01CCF1AA
:1014F000200E03FA0EFE10EB0E0051F10001CCF1AC
:10150000200E29D412FA0EF201EB0451BDE810406E
:1015100058BF7047401C1CBFB2F1004F70470028F5
:101520000CBF491C20F00100704712EB020E43EB88
:10153000030218BF4FF0010E4EEA4202ACF1200C3C
:10154000DCF11E0E54D943FA0CFE10EB0E0051F1E3
:10155000FF31CCF11E0ED5D50EF1010E12FA0EFEA2
:10156000404141EB010101EB445C5FEA5C5C10D956
:1015700010EBDE7001EB045138BFBEF1004FBDE847
:10158000104018BF704700280CBF491C20F0010014
:10159000704730D24FEAD42C11F5001124F40064C6
:1015A0001BD0B1FA81F20B3AA41AA41ED2F1200387
:1015B000914030FA03F31943904001EBCC71002CB9
:1015C00001EB0451BDE81040A8BF704701F1C041D4
:1015D0004FF0000001F000417047B0FA80F310FABC
:1015E00003F100D110BDE41A173C4805C90AE4E72D
:1015F00001EB045110BD491001EB0451BDE810404E
:101600004FEA300002E04FF0000170474A0008BF87
:101610000042F8D0B2F5001F28BF704701F000412A
:101620004FF0000070479EEA445F07D011EA5E0F5A
:10163000BDE8104004BF002100207047BDE8104005
:1016400070B5FFF7BFFE00BF40DFF63E83F00041FC
:10165000104670470000E0FF43004FEAD30C4FEA0A
:101660003C0C43401FBF40070CF1605113F0FE4F8C
:1016700070471CF0006F03D100200CF00041704750
:101680000CF0004343EA507010B540EACC0000F083
:1016900022F800BF000000924FEA0001FFF7E0BE11
:1016A0004FF000414FF00000A1F50021704700000D
:1016B000B0FA80F310FA03F2C3F19D030AD0D90502
:1016C00001EB1220530638BF704700F1010008BF3C
:1016D00020F0010070470EF1020E2EF0030E5EF8AE
:1016E000044B244204D44FEA4102B2F17F4F11D897
:1016F0004FEA4003B3F17F4F0CD80ED14FEAD07CB4
:10170000B2F17F4F0CEB4C0C0CF1020C08BF4CEB10
:10171000D17C04E04FF0080C01E04FEAD17C0CEBE7
:101720004C0324FA03F404F00704B4F1040C06D2C9
:101730000EEB840CBDE810404CF0010C6047DFE874
:101740000CF0070802024FF00040A0F5800010BD29
:101750000846420018BFD2F1807288BF00F00040F6
:1017600010BDFF2141EAD050C00570478C17000022
:10177000000000104400000008010000D017000025
:1017800044000010640200002401000000E1F5059F
:101790000000000000000000000000000000000049
:1017A0000000000000000000000000000000000039
:1017B0000000000000000000000000000000000029
:1017C0000000000000000000000000000000000019
:04000005000001698D
:00000001FF
